:1001B300C0F9A4B0999282F880908880C6C0868ED8
:0301C300BF7FFFFC
:10016D00EF1FAC0670011E4C600D0000007D0B7C76
:07017D00BEDCFEDDFC80E9A1
:010184002258
:10018500E5A0541F4480F5A07580FFE5A0541F44E9
:07019500A0F5A0E4F58022B3
:10006500E5A0541F44C0F5A01FA80774010880022D
:10007500C333D8FCF580E5A0541F44E0F5A0ED900E
:1000850001B393F5807F017E0012016DE5A0541F39
:0800950044C0F5A0E4F580224F
:0200D2008F0895
:1000D4001201D77FA012009D1201C6AF0812009D25
:1000E4001201C61201D77FA112009D1201C612018E
:0D00F400028F09D20412019C1201F2AF0923
:0101010022DB
:100128008F088C098D0A1201D77FA012009D120139
:10013800C6AF0812009D1201C6AF0A12009D120137
:04014800C60201F2F8
:1000030020B00820030520B002D20320B10820024B
:100013000520B102D20220B20820010520B202D28B
:100023000120B30820000520B302D20030B007300E
:100033000304C203050B30B107300204C202150BDF
:1000430030B20F30010CC201E50BFD7C00E4FF125E
:10005300012830B30C300009C200E4FF1200D28F34
:020063000B226E
:10014C00120185120003E50B75F00A84FD7F011284
:10015C000065E50B75F00A84ADF07F021200658036
:01016C00E2B0
:0401E600D2A07F051F
:0801EA0000AE071FEE70F922C0
:0F01D700D2A11201E6C2A17F051201EAC2A02245
:0C01F200C2A11201E6D2A17F050201EAC1
:10019C00C2A0A20492A17F051201EA1201E6C2A03C
:0701AC00D2A17F050201EA68
:1001C6001201E6A2A19204C2A07F051201EAA204CE
:0101D6002206
:02009D00AD07AD
:10009F00E4FCECC39408748094805024C2A07F05C4
:1000AF001201EAED30E704D2A18002C2A17F05124E
:1000BF0001EAD2A0ED25E0FD7F051201EA0C80D206
:0200CF00C2A0CD
:0100D100220C
:10010200E4FCECC394087480948050171201E6ED6D
:1001120025E0FD30A103430501C2A07F051201EADB
:050122000C80DFAF05B9
:0101270022B5
:030000000201FEFC
:0C01FE00787FE4F6D8FD75812002014CEA
:00000001FF
